{
  "contractName": "SpringsContract",
  "abi": [
    {
      "constant": true,
      "inputs": [],
      "name": "fieldTokens",
      "outputs": [
        {
          "name": "",
          "type": "uint256[]"
        }
      ],
      "payable": false,
      "stateMutability": "view",
      "type": "function"
    },
    {
      "constant": true,
      "inputs": [],
      "name": "fieldNames",
      "outputs": [
        {
          "name": "",
          "type": "bytes32[]"
        }
      ],
      "payable": false,
      "stateMutability": "view",
      "type": "function"
    },
    {
      "constant": true,
      "inputs": [
        {
          "name": "",
          "type": "address"
        }
      ],
      "name": "investors",
      "outputs": [
        {
          "name": "investorAddress",
          "type": "address"
        },
        {
          "name": "tokensBought",
          "type": "uint256"
        },
        {
          "name": "tokensInvested",
          "type": "uint256"
        },
        {
          "name": "totalShare",
          "type": "uint256"
        }
      ],
      "payable": false,
      "stateMutability": "view",
      "type": "function"
    },
    {
      "constant": true,
      "inputs": [],
      "name": "totalTokens",
      "outputs": [
        {
          "name": "",
          "type": "uint256"
        }
      ],
      "payable": false,
      "stateMutability": "view",
      "type": "function"
    },
    {
      "constant": true,
      "inputs": [],
      "name": "tokenPrice",
      "outputs": [
        {
          "name": "",
          "type": "uint256"
        }
      ],
      "payable": false,
      "stateMutability": "view",
      "type": "function"
    },
    {
      "constant": true,
      "inputs": [
        {
          "name": "user",
          "type": "address"
        }
      ],
      "name": "investorDetails",
      "outputs": [
        {
          "name": "",
          "type": "uint256"
        },
        {
          "name": "",
          "type": "uint256"
        },
        {
          "name": "",
          "type": "uint256"
        },
        {
          "name": "",
          "type": "uint256[]"
        }
      ],
      "payable": false,
      "stateMutability": "view",
      "type": "function"
    },
    {
      "constant": false,
      "inputs": [],
      "name": "buy",
      "outputs": [
        {
          "name": "",
          "type": "uint256"
        }
      ],
      "payable": true,
      "stateMutability": "payable",
      "type": "function"
    },
    {
      "constant": true,
      "inputs": [
        {
          "name": "",
          "type": "uint256"
        }
      ],
      "name": "fieldNames",
      "outputs": [
        {
          "name": "",
          "type": "bytes32"
        }
      ],
      "payable": false,
      "stateMutability": "view",
      "type": "function"
    },
    {
      "constant": false,
      "inputs": [
        {
          "name": "fieldKey",
          "type": "uint256"
        },
        {
          "name": "tokens",
          "type": "uint256"
        }
      ],
      "name": "invest",
      "outputs": [],
      "payable": false,
      "stateMutability": "nonpayable",
      "type": "function"
    },
    {
      "constant": true,
      "inputs": [],
      "name": "balanceTokens",
      "outputs": [
        {
          "name": "",
          "type": "uint256"
        }
      ],
      "payable": false,
      "stateMutability": "view",
      "type": "function"
    },
    {
      "constant": true,
      "inputs": [
        {
          "name": "",
          "type": "uint256"
        }
      ],
      "name": "fieldTokens",
      "outputs": [
        {
          "name": "",
          "type": "uint256"
        }
      ],
      "payable": false,
      "stateMutability": "view",
      "type": "function"
    },
    {
      "inputs": [
        {
          "name": "tokens",
          "type": "uint256"
        },
        {
          "name": "pricePerToken",
          "type": "uint256"
        },
        {
          "name": "fields",
          "type": "bytes32[]"
        }
      ],
      "payable": false,
      "stateMutability": "nonpayable",
      "type": "constructor"
    }
  ],
  "bytecode": "0x606060405234156200001057600080fd5b60405162000d1538038062000d1583398101604052808051906020019091908051906020019091908051820191905050600083600381905550836004819055508260058190555081600290805190602001906200006f929190620000c6565b50600090505b600280549050811015620000bc57600180548060010182816200009991906200011e565b916000526020600020900160008090919091505550808060010191505062000075565b505050506200019d565b8280548282559060005260206000209081019282156200010b579160200282015b828111156200010a578251829060001916905591602001919060010190620000e7565b5b5090506200011a91906200014d565b5090565b815481835581811511620001485781836000526020600020918201910162000147919062000175565b5b505050565b6200017291905b808211156200016e57600081600090555060010162000154565b5090565b90565b6200019a91905b80821115620001965760008160009055506001016200017c565b5090565b90565b610b6880620001ad6000396000f3006060604052600436106100af576000357c0100000000000000000000000000000000000000000000000000000000900463ffffffff16806313cd6944146100b4578063564f071b1461011e5780636f7bc9be146101885780637e1c0c09146102165780637ff9b5961461023f57806399cfdfb314610268578063a6f2ae3a1461030b578063b2d3dd6614610329578063d87aa64314610368578063e4494a0f14610394578063f8305cfc146103bd575b600080fd5b34156100bf57600080fd5b6100c76103f4565b6040518080602001828103825283818151815260200191508051906020019060200280838360005b8381101561010a5780820151818401526020810190506100ef565b505050509050019250505060405180910390f35b341561012957600080fd5b610131610452565b6040518080602001828103825283818151815260200191508051906020019060200280838360005b83811015610174578082015181840152602081019050610159565b505050509050019250505060405180910390f35b341561019357600080fd5b6101bf600480803573ffffffffffffffffffffffffffffffffffffffff169060200190919050506104b4565b604051808573ffffffffffffffffffffffffffffffffffffffff1673ffffffffffffffffffffffffffffffffffffffff16815260200184815260200183815260200182815260200194505050505060405180910390f35b341561022157600080fd5b610229610504565b6040518082815260200191505060405180910390f35b341561024a57600080fd5b61025261050a565b6040518082815260200191505060405180910390f35b341561027357600080fd5b61029f600480803573ffffffffffffffffffffffffffffffffffffffff16906020019091905050610510565b6040518085815260200184815260200183815260200180602001828103825283818151815260200191508051906020019060200280838360005b838110156102f45780820151818401526020810190506102d9565b505050509050019550505050505060405180910390f35b610313610685565b6040518082815260200191505060405180910390f35b341561033457600080fd5b61034a6004808035906020019091905050610823565b60405180826000191660001916815260200191505060405180910390f35b341561037357600080fd5b6103926004808035906020019091908035906020019091905050610847565b005b341561039f57600080fd5b6103a7610a99565b6040518082815260200191505060405180910390f35b34156103c857600080fd5b6103de6004808035906020019091905050610a9f565b6040518082815260200191505060405180910390f35b6103fc610ac3565b600180548060200260200160405190810160405280929190818152602001828054801561044857602002820191906000526020600020905b815481526020019060010190808311610434575b5050505050905090565b61045a610ad7565b60028054806020026020016040519081016040528092919081815260200182805480156104aa57602002820191906000526020600020905b81546000191681526020019060010190808311610492575b5050505050905090565b60006020528060005260406000206000915090508060000160009054906101000a900473ffffffffffffffffffffffffffffffffffffffff16908060010154908060020154908060030154905084565b60035481565b60055481565b600080600061051d610ac3565b6000808673ffffffffffffffffffffffffffffffffffffffff1673ffffffffffffffffffffffffffffffffffffffff168152602001908152602001600020600101546000808773ffffffffffffffffffffffffffffffffffffffff1673ffffffffffffffffffffffffffffffffffffffff168152602001908152602001600020600201546000808873ffffffffffffffffffffffffffffffffffffffff1673ffffffffffffffffffffffffffffffffffffffff168152602001908152602001600020600301546000808973ffffffffffffffffffffffffffffffffffffffff1673ffffffffffffffffffffffffffffffffffffffff1681526020019081526020016000206004018080548060200260200160405190810160405280929190818152602001828054801561066f57602002820191906000526020600020905b81548152602001906001019080831161065b575b5050505050905093509350935093509193509193565b6000806005543481151561069557fe5b04905060045481111515156106a957600080fd5b336000803373ffffffffffffffffffffffffffffffffffffffff1673ffffffffffffffffffffffffffffffffffffffff16815260200190815260200160002060000160006101000a81548173ffffffffffffffffffffffffffffffffffffffff021916908373ffffffffffffffffffffffffffffffffffffffff160217905550806000803373ffffffffffffffffffffffffffffffffffffffff1673ffffffffffffffffffffffffffffffffffffffff168152602001908152602001600020600101600082825401925050819055506003546000803373ffffffffffffffffffffffffffffffffffffffff1673ffffffffffffffffffffffffffffffffffffffff168152602001908152602001600020600101548115156107c657fe5b046000803373ffffffffffffffffffffffffffffffffffffffff1673ffffffffffffffffffffffffffffffffffffffff16815260200190815260200160002060030181905550806004600082825403925050819055508091505090565b60028181548110151561083257fe5b90600052602060002090016000915090505481565b60008060008060003373ffffffffffffffffffffffffffffffffffffffff1673ffffffffffffffffffffffffffffffffffffffff16815260200190815260200160002060040180549050141561091f57600091505b60028054905082101561091e576000803373ffffffffffffffffffffffffffffffffffffffff1673ffffffffffffffffffffffffffffffffffffffff16815260200190815260200160002060040180548060010182816108fc9190610aeb565b916000526020600020900160008090919091505550818060010192505061089c565b5b6000803373ffffffffffffffffffffffffffffffffffffffff1673ffffffffffffffffffffffffffffffffffffffff168152602001908152602001600020600201546000803373ffffffffffffffffffffffffffffffffffffffff1673ffffffffffffffffffffffffffffffffffffffff168152602001908152602001600020600101540390508281101515156109b557600080fd5b826001858154811015156109c557fe5b906000526020600020900160008282540192505081905550826000803373ffffffffffffffffffffffffffffffffffffffff1673ffffffffffffffffffffffffffffffffffffffff16815260200190815260200160002060040185815481101515610a2c57fe5b906000526020600020900160008282540192505081905550826000803373ffffffffffffffffffffffffffffffffffffffff1673ffffffffffffffffffffffffffffffffffffffff1681526020019081526020016000206002016000828254019250508190555050505050565b60045481565b600181815481101515610aae57fe5b90600052602060002090016000915090505481565b602060405190810160405280600081525090565b602060405190810160405280600081525090565b815481835581811511610b1257818360005260206000209182019101610b119190610b17565b5b505050565b610b3991905b80821115610b35576000816000905550600101610b1d565b5090565b905600a165627a7a7230582074e73ca8460062279c1e09a45268d01d19ff3b8417c9d24763fa41283761187b0029",
  "source": "pragma solidity ^0.4.18;\n\ncontract SpringsContract {\n\n  struct investor {\n    address investorAddress; \n    uint tokensBought;\n    uint tokensInvested;\n    uint totalShare;\n    uint[] tokensUsedPerField;\n  }\n  mapping (address => investor) public investors;\n\n  uint[] public fieldTokens;\n  bytes32[] public fieldNames;\n\n  uint public totalTokens;\n  uint public balanceTokens;\n  uint public tokenPrice;\n\n  function SpringsContract(uint tokens, uint pricePerToken, bytes32[] fields) public {\n    totalTokens = tokens;\n    balanceTokens = tokens;\n    tokenPrice = pricePerToken;\n    fieldNames = fields;\n    for(uint i = 0; i < fieldNames.length; i++) {\n      fieldTokens.push(0);\n    }\n  }\n\n\n  function buy() payable public returns (uint) {\n    uint tokensToBuy = msg.value / tokenPrice;\n    require(tokensToBuy <= balanceTokens);\n    investors[msg.sender].investorAddress = msg.sender;\n    investors[msg.sender].tokensBought += tokensToBuy;\n    investors[msg.sender].totalShare = investors[msg.sender].tokensBought / totalTokens;\n    balanceTokens -= tokensToBuy;\n\n    return tokensToBuy;\n  }\n\n  function invest(uint fieldKey, uint tokens) public {\n    if (investors[msg.sender].tokensUsedPerField.length == 0) {\n      for(uint i = 0; i < fieldNames.length; i++) {\n        investors[msg.sender].tokensUsedPerField.push(0);\n      }\n    }\n\n    uint availableTokens = investors[msg.sender].tokensBought - investors[msg.sender].tokensInvested;\n    require(availableTokens >= tokens);\n\n    fieldTokens[fieldKey] += tokens;\n\n    // Store how many tokens were used for this field\n    investors[msg.sender].tokensUsedPerField[fieldKey] += tokens;\n    investors[msg.sender].tokensInvested += tokens;\n  }\n\n\n\n  function investorDetails(address user) view public returns (uint, uint, uint, uint[]) {\n    return (\n        investors[user].tokensBought,\n        investors[user].tokensInvested,\n        investors[user].totalShare,\n        investors[user].tokensUsedPerField\n    );\n  }\n\n  function fieldNames() view public returns (bytes32[]) {\n    return fieldNames;\n  }\n\n  function fieldTokens() view public returns (uint[]) {\n    return fieldTokens;\n  }\n\n  /* All the ether sent by investors who purchased the tokens is in this\n   contract's account. This method will be used to transfer out all those ethers\n   in to another account. *** The way this function is written currently, anyone can call\n   this method and transfer the balance in to their account. In reality, you should add\n   check to make sure only the owner of this contract can cash out.\n   */\n  /*function transferTo(address account) public {\n    account.transfer(this.balance);\n  }*/\n}",
  "sourcePath": "/Users/pianist/ethereum/springs-ico/contracts/SpringsContract.sol",
  "compiler": {
    "name": "solc",
    "version": "0.4.18+commit.9cf6e910.Emscripten.clang"
  },
  "schemaVersion": "1.0.1",
  "updatedAt": "2018-01-15T23:10:03.114Z"
}